:020000040800F2
:10000000D80A002091010008F5090008AB08000893
:10001000F10900085B070008BB170008000000009A
:100020000000000000000000000000005111000866
:100030005F07000800000000391000083D120008AA
:10004000AB010008AB010008AB010008AB010008E0
:10005000AB010008AB010008AB010008AB010008D0
:10006000AB010008AB010008AB010008AB010008C0
:10007000AB010008AB010008AB010008AB010008B0
:10008000AB010008AB010008AB010008AB010008A0
:10009000AB010008AB010008AB010008AB01000890
:1000A000AB010008AB010008AB010008AB01000880
:1000B000AB010008AB010008AB010008AB01000870
:1000C000AB010008AB010008AB010008AB01000860
:1000D000AB010008AB010008BD140008AB0100082B
:1000E000AB010008AB010008AB01000800F002F80A
:1000F00000F03FF80AA090E8000C82448344AAF183
:100100000107DA4501D100F034F8AFF2090EBAE880
:100110000F0013F0010F18BFFB1A43F0010318473B
:100120008C280000AC280000103A24BF78C878C1A1
:10013000FAD8520724BF30C830C144BF04680C60ED
:10014000704700000023002400250026103A28BF35
:1001500078C1FBD8520728BF30C148BF0B60704739
:10016000642900F04B80002070471FB51FBD10B5FB
:1001700010BD00F001FA1146FFF7F7FF01F026FB72
:1001800000F01FFA03B4FFF7F2FF03BC00F022FAFD
:100190000948804709480047FEE7FEE7FEE7FEE71B
:1001A000FEE7FEE7FEE7FEE7FEE7FEE70448054957
:1001B000054A064B7047000079120008ED00000860
:1001C000D8040020D80A0020D8060020D806002035
:1001D0000FB41CB5084B06AA7B44694600900598ED
:1001E00000F0ADF904460020694600F0BBF9204656
:1001F0001CBC5DF814FB0000890300002DE9F041F0
:100200000646002410687529314616A510D0AFF3B4
:100210000080002802DA404213A507E031688A070F
:1002200001D512A502E0490704D511A5012401E07A
:10023000AFF3008000210A2206F1240709E0B0FB99
:10024000F2FCB0FBF2F302FB1C003030785418468D
:10025000491C0028F3D123462A463046BDE8F04128
:1002600000F00FB9000000002D0000002B0000007E
:10027000200000002DE9F05F894604464FF0000A97
:10028000DFF874B1FB44C0F820A02046E16888473D
:10029000002874D0252806D0D4E901219047206A8F
:1002A000401C2062F1E700265F462046E16888474F
:1002B0002028054607DB312D05D2781910F8200CCF
:1002C00008B10643F1E7B00701D526F00406C4F8EB
:1002D0001CA00027C4F818A02A2D09D0284601F038
:1002E0006EFA38B304EB8708303DC8F8185019E0AF
:1002F00059F8041B204604EB87029161E1688847A6
:10030000012F054618D1E069002820DA26F02006E2
:100310001DE0D8F8180000EB800005EB40003038F5
:10032000C8F818002046E1688847054601F047FAFA
:100330000028EED1012F0AD02E2D08D12046E168E9
:1003400088477F1C0546022F46F02006C4DBA069C3
:10035000002803DA404246F00106A061F00701D010
:1003600026F010066C2D0BD0682D09D04C2D39D0FD
:100370006A2D35D0742D35D07A2D33D016E038E083
:10038000E1682F4620468847B842054609D16C2FC0
:1003900026D04FF48060E168064320468847054632
:1003A00004E06C2F1AD04FF4807006430DB3A5F112
:1003B0004100192802D8203546F400664A462946ED
:1003C000204626604E46FFF7CBFE80B101280BD0B9
:1003D000F61D26F0070000F1080956E74020E4E783
:1003E0008020D8E70020D6E706F104094DE728462B
:1003F00052E7206ABDE8F09F122700004FF0013C51
:1004000050F8042B51F8043B9A4221D1A2EB0C0383
:10041000934313EACC1317D150F8042B51F8043B43
:100420009A4215D1A2EB0C03934313EACC130BD1E0
:1004300050F8042B51F8043B9A4209D1A2EB0C036B
:10044000934313EACC13DBD04FF00000704700BF9A
:10045000D01A01BAB1FA81F101F0180122FA01F0C3
:10046000CB40C1F12001DBB2C0B2C01A2CFA01F3BB
:10047000D11A914311EAC311E6D170477047704712
:1004800070472DE9F0470D4699469246044600F123
:1004900024080168880604D5E06921F01001216074
:1004A00000E00120A84201DD471B00E00027A16910
:1004B0007A1902EB0900081AA0612078C00602D45C
:1004C0002046AFF30080002608E0D4E901211AF8A5
:1004D00006009047206A401C761C20624E45F4DBE3
:1004E0002078C0060AD52046AFF3008006E0D4E9A4
:1004F000012130209047206A401C2062381EA7F15D
:100500000107F4DC07E0D4E9012118F80500904761
:10051000206A401C2062281EA5F10105F3DC20465C
:10052000AFF300802078000602D50220BDE8F087F6
:100530000120FBE701694A1C02610878704700B599
:100540008FB0CDE901310021059105497944CDE90C
:10055000031011466846FFF78DFE0FB000BD000086
:10056000E5FFFFFF0A6802F8010B0A607047000010
:1005700000487047780400207546FFF7F9FFAE4643
:1005800005006946534620F00700854618B020B59F
:10059000FFF70CFEBDE820404FF000064FF00007CB
:1005A0004FF000084FF0000B21F00701AC46ACE81B
:1005B000C009ACE8C009ACE8C009ACE8C0098D4688
:1005C000704710B50446AFF300802046BDE81040E8
:1005D000FFF7D8BD01491820ABBEFEE72600020098
:1005E000704721B1826842F00102826003E08268B4
:1005F00022F0010282607047014600208A6802F002
:1006000004020AB1012000E0002070470146C86CD6
:1006100080B27047014600208A6802F008020AB1E1
:10062000012000E00020704730B502460020002382
:1006300050680F4C20400D790C6844EA0524204393
:10064000506090680B4C2040D1E902542C434D7906
:1006500044EA450420439060D06A20F470000C7C8A
:10066000641EE4B2234340EA0350D06230BD000070
:10067000FFFEF0FFFDF7F1FFF0B504460D46002048
:100680000021092D11DDE068A5F10A0606EB4607F9
:10069000072606FA07F18843A5F10A0606EB460687
:1006A00003FA06F10843E0600CE0206905EB45071A
:1006B000072606FA07F1884305EB450603FA06F11B
:1006C00008432061072A0FDA606B561E06EB860787
:1006D0001F2606FA07F18843561E06EB860605FA22
:1006E00006F10843606322E00D2A0FDA206BD61F63
:1006F00006EB86071F2606FA07F18843D61F06EB8E
:10070000860605FA06F10843206310E0E06AA2F1CC
:100710000D0606EB86071F2606FA07F18843A2F1AD
:100720000D0606EB860605FA06F10843E062F0BD09
:10073000816841F008018160704721B1826842F40C
:10074000A002826003E0826822F4A0028260704707
:10075000816841F004018160704700BFFEE7704787
:1007600010B52021014800F08EF810BD00080140AE
:100770002DE9F04102460025002600200023002438
:10078000002791F803C00CF00F0591F803C00CF09E
:10079000100CBCF1000F03D091F802C04CEA050523
:1007A00091F800C0BCF1000F31D0146800202BE09C
:1007B0004FF0010C0CFA00F3B1F800C00CEA03068C
:1007C0009E4220D183004FF00F0C0CFA03F7BC437C
:1007D00005FA03FC4CEA040491F803C0BCF1280FAD
:1007E00006D14FF0010C0CFA00FCC2F814C00AE06C
:1007F00091F803C0BCF1480F05D14FF0010C0CFA81
:1008000000FCC2F810C0401C0828D1D31460B1F815
:1008100000C0BCF1FF0F34DD546800202EE000F171
:10082000080C4FF0010808FA0CF3B1F800C00CEA0C
:1008300003069E4221D183004FF00F0C0CFA03F700
:10084000BC4305FA03FC4CEA040491F803C0BCF174
:10085000280F05D100F1080C08FA0CF8C2F8148032
:1008600091F803C0BCF1480F07D100F1080C4FF01C
:10087000010808FA0CF8C2F81080401C0828CED3F2
:100880005460BDE8F0810246002093680B400BB134
:10089000012000E00020704741617047016170470E
:1008A0000AB1016100E04161704700BFFEE700004E
:1008B00010B5044614B1012C12D108E04FF40051D8
:1008C0000948FFF7E9FF01200849088009E04FF4D3
:1008D00000510548FFF7E2FF00200449088000E0CE
:1008E00000BF00BF10BD0000001001401400002038
:1008F00008B50121102000F0B1FB4FF40050ADF815
:10090000000010208DF8030001208DF802006946D8
:100910000448FFF72DFF4FF400510248FFF7BEFFD8
:1009200008BD00000010014000B587B001214FF460
:10093000017000F093FB00208DF81B008020ADF8C3
:10094000180006A92048FFF713FF48208DF81B0068
:100950004020ADF8180006A91B48FFF709FF00204A
:1009600001908DF8080001208DF809004FF46020F7
:1009700003900020049001208DF8140001A9134871
:10098000FFF752FE01211148FFF72BFE0F48FFF73A
:10099000CFFE00BF0D48FFF73DFE0028FAD10B48FF
:1009A000FFF7D6FE00BF0948FFF726FE0028FAD160
:1009B0000523012207210548FFF75EFE01210348B8
:1009C000FFF7BBFE07B000BD000801400024014056
:1009D00010B50248FFF71AFE10BD000000240140C8
:1009E00010B540210148FFF74EFF10BD000801403F
:1009F00000BFFEE77047000070B5002100230F2202
:100A0000C47804B3154C246804F4E064C4F5E064CD
:100A1000210AC1F10403CA40447804FA03F184783E
:100A20001440214309010E4C0678A155047804F0C6
:100A30001F050124AC4005786D11AD0005F1E025DE
:100A4000C5F8004109E0047804F01F050124AC401A
:100A5000044D0678761145F8264070BD0CED00E097
:100A600000E400E080E100E02DE9F04304460D469B
:100A700016461F467F2C01DDBDE8F0833F2D00DDCB
:100A8000FAE7A119802902DDC4F18001CEB2E9198B
:100A9000402902DDC5F14001CFB2284630E02346AF
:100AA00029E04FEAE07C00EB5C7C4FEAEC0CDFF8DD
:100AB0005C8008EBCC1C1CF803C002464FEAE078CF
:100AC00000EB58784FEAE808A0EBC8094FF001089E
:100AD00008FA09F82CEA080C01464FEAE07800EB26
:100AE00058784FEAE808DFF8249009EBC81808F8AE
:100AF00003C0591CCBB2A1199942D2DC411CC8B227
:100B0000E9198142CBDC00BFB6E700007600002087
:100B100008B50121082000F0A1FA14208DF8030087
:100B2000C020ADF8000003208DF80200694605489A
:100B3000FFF71EFE012000F02FFA012000F036FA28
:100B400008BD0000000C014070B50546002411E00E
:100B500080212141294009B1012100E000210846FE
:100B600000F024FA012000F017FA002000F014FA37
:100B7000601CC4B2082CEBDB012000F017FA012046
:100B800000F00AFA002000F007FA70BD10B501204D
:100B900000F002FA012000F009FA002000F006FA45
:100BA000002000F0F9F910BD10B5002000F0FEF9AA
:100BB000012000F0F1F9012000F0F8F910BD10B5A6
:100BC000FFF7A6FFAE2000F0FBF9D52000F0F8F902
:100BD000802000F0F5F9A82000F0F2F93F2000F0A5
:100BE000EFF9D32000F0ECF9002000F0E9F9402003
:100BF00000F0E6F9A12000F0E3F9C82000F0E0F9E8
:100C0000DA2000F0DDF9122000F0DAF9812000F09E
:100C1000D7F9CF2000F0D4F9D92000F0D1F9F12094
:100C200000F0CEF9DB2000F0CBF9302000F0C8F95D
:100C3000A42000F0C5F9A62000F0C2F98D2000F034
:100C4000BFF9142000F0BCF9AF2000F0B9F910BDD5
:100C500010B50246012000E050430B1EA1F1010136
:100C6000FAD110BD70B505460C46A01CC4B245F0C3
:100C7000B00000F0A5F9102141EA141000F0A0F92D
:100C800004F00F0000F09CF970BD0000F8B50646B6
:100C90000F4614461D46082D0CD1A4F120000E4924
:100CA00001EB00101023082239460090304600F076
:100CB00065F80FE0062D0DD1A4F1200000EB4000F7
:100CC000064901EB400008230622394600903046D1
:100CD00000F054F8F8BD0000F01C0008E022000805
:100CE0002DE9FC47804689461646002700200190E2
:100CF00000253AE0705D01A9C855781CC7B2022FE3
:100D000031DB002700240CE0C4EBC40101EB8101BE
:100D1000184A881801A9FFF771FB00B90CE0601CA4
:100D2000C4B2C4EBC40101EB8101124A881812A1BC
:100D3000FFF764FB0028E7D100BFC4EBC40000EB61
:100D400080000C490844C01C05F1010A0AEBDA7165
:100D50004910491E08EB01110090C8B210231A4631
:100D6000494600F00BF8681CC5B2705D0028C1D17F
:100D7000BDE8FC871A250008000000002DE9F047B7
:100D800007460C4690469946DDF820A07F2F01DDEE
:100D9000BDE8F0873F2C00DDFAE74B46424621468E
:100DA0003846FFF761FE002570E0002669E0B819BB
:100DB0007F2800DD67E0E11704EB517105EBE101ED
:100DC000072900DDE4E72046E21704EB527205EB49
:100DD000E202344B03EBC212BB19D25C2146E3178B
:100DE00004EB5373DB10A4EBC30305FB086C1AF888
:100DF0000CC00CFA03FC42EA0C02E31704EB537339
:100E000005EBE303DFF89CC00CEBC31307EB060C08
:100E100003F80C20E11704EB517105EBE101491CCB
:100E2000072900DD2BE02046E21704EB527205EBA8
:100E3000E202521C1B4B03EBC212BB19D25C2146CF
:100E4000E31704EB5373DB10A4EBC303C3F10803F4
:100E500005FB086C1AF80CC04CFA03FC42EA0C02C1
:100E6000E31704EB537305EBE3035B1CDFF834C0BB
:100E70000CEBC31307EB060C03F80C2000BF701C2F
:100E8000C6B2464593DB00BF681CC5B2A9F101009C
:100E9000C11700EB5171012202EBE101A94284DC90
:100EA00000BF75E7760000202DE9F0470646894629
:100EB00017461D46DDF82080002417E0281B411E40
:100EC0000A20FFF7C5FEB7FBF0F00A21B0FBF1F2F4
:100ED00001FB120000F1300A04FB0861C8B243466E
:100EE00052464946FFF7D2FE601CC4B2AC42E5DB75
:100EF000BDE8F08710B500240BE000212046FFF785
:100F0000B1FE054901EBC410802100F069F8601CB6
:100F1000C4B2082CF1DB10BD760000202DE9F041B1
:100F200005460C46174698467F2D01DDBDE8F08149
:100F30003F2C00DDFAE7E819802802DDC5F18000CA
:100F4000C7B204EB0800402803DDC4F1400000F004
:100F5000FF082046E11704EB5171C1F3C7060CE00E
:100F600029463046FFF77EFE0A4901EBC6114819B3
:100F7000394600F035F8701CC6B204EB0801481E73
:100F8000C11700EB5171012202EBE101B142E7DC34
:100F900000BFCBE77600002010B504462246402172
:100FA0000148FFF77DFC10BD000C014010B5044660
:100FB000224680210148FFF773FC10BD000C014060
:100FC00010B50446FFF7E2FD7820FFF7BDFD0020D5
:100FD000FFF7BAFD2046FFF7B7FDFFF7E5FD10BDAF
:100FE00070B505460E46FFF7D1FD7820FFF7ACFD42
:100FF0004020FFF7A9FD002404E0285DFFF7A4FDD1
:10100000601CC4B2B442F8DBFFF7CEFD70BD000037
:1010100010B504462146024800F0F8F910BD000062
:101020000004004010B504462146024800F0F0F9E3
:1010300010BD0000000400407047000029B1064ABE
:10104000D2690243044BDA6104E0034AD269824365
:10105000014BDA61704700000010024029B1064AD6
:1010600092690243044B9A6104E0034A9269824305
:10107000014B9A61704700000010024030B500211A
:101080000022002400232D4D6D6805F00C0121B1D4
:10109000042905D0082923D105E0294D056022E067
:1010A000274D05601FE0254D6D6805F47012234D36
:1010B0006D6805F48034022505EB92421CB9214D80
:1010C000554305600BE01D4D6D6805F400351DB1FD
:1010D0001C4D5543056002E0194D5543056002E083
:1010E000174D056000BF00BF144D6D6805F0F0019D
:1010F0000909154D6B5C0568DD4045600F4D6D6855
:1011000005F4E061090A104D6B5C4568DD408560BF
:101110000A4D6D6805F46051C90A0B4D6B5C45685A
:10112000DD40C560054D6D6805F44041890B074DF4
:101130006B5CC568B5FBF3F5056130BD001002407E
:1011400000127A0000093D0000000020100000207D
:10115000704710B500F002F810BD00000CB500207B
:10116000019000903348006840F4803031490860B5
:1011700000BF3048006800F4003000900198401C27
:101180000190009818B90198B0F5A06FF1D12948E5
:10119000006800F4003010B10120009001E0002050
:1011A00000900098012843D12348006840F01000C7
:1011B000214908600846006820F0030008600846DE
:1011C000006840F0020008601A4840681949486009
:1011D0000846406848600846406840F480604860BF
:1011E0000846406820F47C1048600846406840F497
:1011F000E81048600846006840F08070086000BF52
:101200000C48006800F000700028F9D009484068D8
:1012100020F00300074948600846406840F002009B
:10122000486000BF0348406800F00C000828F9D16E
:101230000CBD00000010024000200240064800687B
:10124000401C054908600548006820B10348006853
:10125000401E02490860704718000020240000204A
:1012600004484FF0E02148610020886107200861B0
:10127000704700003F19010010B51348006840F0A6
:1012800001001149086008464068104908400E49AD
:101290004860084600680E4908400B490860084647
:1012A000006820F4802008600846406820F4FE00B2
:1012B00048604FF41F008860FFF74BFF4FF000605D
:1012C0000449086010BD0000001002400000FFF853
:1012D000FFFFF6FE08ED00E021B1028842F00102B6
:1012E000028004E002884FF6FE731A4002807047C5
:1012F00070B5002400220023058C4FF6FF663540B0
:101300000584028C8388848B4FF68F752C404FF6B2
:10131000FC752C400D882C434FF6FF552A400D8953
:101320004FF6FF7606EA05252A434D8806EA05258D
:101330002A43154DA84202D0144DA8421DD14FF2A8
:10134000FF752A404D894FF6FF7606EA05252A43A8
:101350004FF6FF352A408D8806EA05252A434EF6CA
:10136000FF752B404DF6FF752B408D8906EA05155C
:101370002B43CD8906EA05152B4383808483CD88D2
:101380008587028470BD0000002C014000340140BC
:1013900070B5002200230024058C4EF6FF76354000
:1013A0000584038C8488828B48F6FF752A404FF6AB
:1013B000FF452A400D884FF6FF7606EA05252A43A9
:1013C0004DF6FF752B400D8906EA05352B434D88F8
:1013D00006EA05352B430B4DA84202D00A4DA84220
:1013E00008D14BF6FF752C408D894FF6FF7606EA43
:1013F00085152C4384808283CD88A0F840500384D7
:1014000070BD0000002C014000340140818770470E
:10141000A0F8401070470000002202881D4B98423F
:101420000ED01D4B98420BD0B0F1804F08D01B4B13
:10143000984205D01A4B984202D01A4B984204D1D8
:101440004FF68F731A404B881A43174B984207D0B8
:10145000164B984204D04FF6FF431A40CB881A43EC
:1014600002808B8883850B8803850A4B98420BD0BA
:10147000094B984208D00E4B984205D00D4B98422C
:1014800002D00D4B984201D10B7A0386012383824F
:1014900070470000002C014000340140000400406F
:1014A00000080040000C0040001000400014004004
:1014B00000400140004401400048014010B540F2A6
:1014C00025510E4800F0B4F8B0B10C4800F06CF9AA
:1014D000C4B20B480068312807DA09490868411C82
:1014E000074A116007490C5402E0002004490860D3
:1014F00032200549086000BF10BD000000440040D4
:101500001C000020440000202400002000B587B00B
:1015100001214804FFF792FD01210420FFF79EFD01
:1015200018208DF81B000420ADF8180003208DF85A
:101530001A0006A92248FFF71BF904208DF81B00AA
:101540000820ADF8180006A91D48FFF711F94FF45F
:10155000165002900020ADF80C00ADF80E00ADF86A
:101560001000ADF814000C20ADF8120002A91548C7
:1015700000F0AEF80121134800F041F826208DF864
:10158000040001208DF805008DF806008DF8070095
:1015900001A8FFF731FA012240F22551094800F075
:1015A00071F8262000F01F020121914042099200AB
:1015B00002F1E022C2F8001100BF07B000BD000038
:1015C000000801400044004010B50446214605488B
:1015D00000F0EFF800BF8021024800F01CF800285E
:1015E000F9D010BD0044004010B5044603E014F8E3
:1015F000010BFFF7E9FF20780028F8D110BD21B1D9
:10160000828942F40052828104E082894DF6FF73A0
:101610001A408281704702460020B1F5007F00D158
:1016200000BF13880B400BB1012000E00020704781
:1016300070B50246002400230025002040F66A16FB
:10164000B14200D100BFC1F3421501F01F030126D2
:1016500006FA03F3012D02D19689334006E0022DEC
:1016600002D1168A334001E0968A33400C120126DB
:1016700006FA04F41688344013B10CB1012000E0DE
:10168000002070BDF0B50346002400260025002090
:1016900040F66A17B94200D100BF1846C1F34214A0
:1016A00001F01F06012707FA06F5012C01D10C30C5
:1016B00004E0022C01D1103000E014301AB10768A8
:1016C0002F43076002E00768AF430760F0BD0000EA
:1016D0002DE9F04786B005460E460024A24600BF1D
:1016E000A1460027B08900B100BF2F462C8A4CF6D6
:1016F000FF700440F08804432C82AC894EF6F3104E
:101700000440B08831890843718908430443AC819F
:10171000AC8A4FF6FF400440B0890443AC8201A874
:10172000FFF7ACFC1F48874202D1DDF810A001E0B2
:10173000DDF80CA0A88900F4004040B10AEBCA0013
:1017400000EB0A1031684900B0FBF1F807E00AEB42
:10175000CA0000EB0A1031688900B0FBF1F8642080
:10176000B8FBF0F004012009642101FB1089A8896D
:1017700000F4004040B1322000EBC900B0FBF1F0B2
:1017800000F00700044308E0322000EB0910642158
:10179000B0FBF1F000F00F0004432C8106B0BDE86F
:1017A000F08700000038014001468888C0F3080037
:1017B0007047C1F308028280704700BFFEE73038EF
:1017C0000A2801D201207047002070478AB0FFF735
:1017D0009FF9FFF7F4F9FFF7A7F8FFF741FD00F0D5
:1017E00023FAFFF793FEFFF783F8A9A0FFF7FCFEAB
:1017F000ABA200210846FFF773FAACA2102100202B
:10180000FFF76EFAABA220210020FFF769FAACA225
:1018100030210020FFF764FAFFF76CFB37E1AB489B
:101820000468AB480068201A642818D3A8480460EC
:101830000025002603E0FFF7CBF80544761C052EB3
:10184000F9DB0520B5FBF0F0A2490880FEF788FF20
:10185000A1490880FFF7C4F8A049088000BFA0484C
:101860000068201A642831D39D4804609948008894
:10187000B0F5FA6F03DD01209A49087008E0954839
:10188000008840F26C71884202DA002095490870A5
:1018900094480078012805D09048008810B18E48FF
:1018A000008840B90020FFF703F800F09DF90120FF
:1018B0008D4908700AE08C480078012806D1FEF7AF
:1018C000F7FF00F0F9F900208749087087480068A1
:1018D000201AB0F5967F4DD3844804607E48008876
:1018E000012805D182A210213020FFF7F9F904E088
:1018F00081A210213020FFF7F3F98148007828B940
:1019000080A220215020FFF7EBF904E07FA22021E4
:101910005020FFF7E5F97F48008828B979A23021E7
:101920004020FFF7DDF904E078A230214020FFF7E6
:10193000D7F908200423009066480288002150202F
:10194000FFF7B2FA1023202200215020FFF7E6FA19
:101950001023202219463020FFF7E0FA102320221E
:1019600011465020FFF7DAFA1023202230214020C0
:10197000FFF7D4FA68480068201AB0F57A7F13D3CD
:1019800065480460634800885D490978CDE9001026
:10199000514803884F48028860A102A8FEF718FC4E
:1019A00002A8FFF721FE00BF6248006868B96248DC
:1019B0000068002809DD002060495F4A12688854E9
:1019C0005D49086001205E4908705D480078002884
:1019D0005CD000205A4908705AA15848FEF70EFD05
:1019E00060B90020FEF764FF00203F49087057A04F
:1019F000FFF7FAFD59A0FFF7F7FD47E05EA14F485A
:101A0000FEF7FCFC78B90120FEF752FF00203649B2
:101A100008704A48FFF7E8FD4DA0FFF7E5FD59A023
:101A2000FFF7E2FD32E05EA14448FEF7E7FC80B933
:101A30004FF47A7000F0EAF800202B4908703F4814
:101A4000FFF7D2FD42A0FFF7CFFD4EA0FFF7CCFD80
:101A50001CE055A13948FEF7D1FC70B900F03AF905
:101A60000020214908703548FFF7BEFD38A0FFF778
:101A7000BBFD44A0FFF7B8FD08E03048FFF7B4FD18
:101A80004CA0FFF7B1FD4FA0FFF7AEFD00BFC6E6CB
:101A900073797374656D2073746172740D0A00003C
:101AA000D1CCCEEDC5A8B6C8A3BA0000BBF0D1E634
:101AB000A3BA0000B7E7C9C8D7B4CCACA3BA00003A
:101AC000B5C6D7B4CCACA3BA000000001800002003
:101AD0002C0000203E00002040000020420000209A
:101AE00030000020280000203C00002034000020AE
:101AF000CEDEBBF000000000D3D0BBF00000000041
:101B000016000020B9D8B1D500000000B4F2BFAA79
:101B10000000000014000020380000203C533A254B
:101B2000642C463A25642C4D3A25642C4C3A2564A5
:101B30003E0D0A00240000201C000020440000206C
:101B4000200000206F6E6C69676874006F70656EAE
:101B500020737563636573730D0A0000706C6561B3
:101B6000736520656E7465722074686520636F6D9F
:101B70006D616E640D0A00006F66666C696768745B
:101B800000000000706C6561736520656E7465729D
:101B90002074686520636F6D6D616E64310D0A009D
:101BA0006F6E6D6F746F72006F66666D6F746F72BB
:101BB000000000002073656E64206572726F7221F0
:101BC000210D0A00706C6561736520656E74657225
:101BD000207468652076616C696420636F6D6D6147
:101BE0006E640D0A0000000010B501210548FEF7E3
:101BF00055FE02210348FEF74FFE012002490870FE
:101C000010BD0000000C01401600002010B5044675
:101C10002046FFF7FDF90020FFF704FA01200149F3
:101C2000087010BD1600002000B589B00121082001
:101C3000FFF714FA01210220FFF700FA0320ADF8A4
:101C4000200018208DF8230003208DF8220008A919
:101C50001748FEF78DFD40F2E730ADF81800472039
:101C6000ADF814000020ADF81A00ADF8160005A973
:101C70001048FFF7D1FB6020ADF804000420ADF858
:101C800006000020ADF80A00ADF80C0001A90948D3
:101C9000FFF72EFB0020ADF80A0001A90548FFF769
:101CA00077FB01210348FFF717FB09B000BD0000D7
:101CB000000C01400004004010B503210348FEF76A
:101CC000EBFD00200249087010BD0000000C01402F
:101CD0001600002010B50020FFF79AF90020FFF74A
:101CE000A1F900200149087010BD00001600002075
:101CF00000000000000000000000000000000000E4
:101D0000000000F800000000000000333000000078
:101D100000160E00160E000000000000000000007B
:101D200040C07840C0784000043F04043F040400F1
:101D3000007088FC08300000001820FF211E000001
:101D4000F008F000E018000000211C031E211E0016
:101D500000F00888700000001E212324192721109C
:101D6000000000160E00000000000000000000004F
:101D7000000000E0180402000000000718204000E6
:101D800000020418E00000000040201807000000D6
:101D9000404080F0804040000202010F010202003A
:101DA000000000F0000000000101011F010101001E
:101DB000000000000000000000B070000000000003
:101DC000000000000000000000010101010101010C
:101DD00000000000000000000030300000000000A3
:101DE0000000000080601804006018060100000078
:101DF00000E010080810E000000F102020100F0075
:101E0000001010F8000000000020203F20200000FB
:101E10000070080808887000003028242221300053
:101E200000300888884830000018202020110E005B
:101E30000000C02010F8000000070424243F240004
:101E400000F80888880808000019212020110E00D9
:101E500000E0108888180000000F112020110E00EB
:101E600000380808C83808000000003F00000000E3
:101E70000070880808887000001C222121221C00A4
:101E800000E010080810E0000000312222110F00CD
:101E9000000000C0C0000000000000303000000062
:101EA000000000C0C0000000000080B07000000012
:101EB00000008040201008000001020408102000EB
:101EC0004040404040404000040404040404040036
:101ED00000081020408000000020100804020100CB
:101EE000007048080808F0000000003036010000CB
:101EF000C030C828E810E0000718272423140B007E
:101F00000000C038E0000000203C230202273820F7
:101F100008F8888888700000203F202020110E00DB
:101F2000C0300808080838000718202020100800D2
:101F300008F808080810E000203F202020100F00BB
:101F400008F88888E8081000203F20202320180087
:101F500008F88888E8081000203F200003000000EF
:101F6000C03008080838000007182020221E020090
:101F700008F808000008F808203F210101213F204F
:101F8000000808F8080800000020203F202000007A
:101F900000000808F8080800C08080807F0000006A
:101FA00008F888C028180800203F200126382000A3
:101FB00008F8080000000000203F2020202030000A
:101FC00008F8F800F8F80800203F003F003F200024
:101FD00008F830C00008F808203F200007183F002C
:101FE000E01008080810E0000F10202020100F005B
:101FF00008F808080808F000203F2101010100004E
:10200000E01008080810E0000F18242438504F0092
:1020100008F8888888887000203F2000030C302052
:1020200000708808080838000038202121221C0090
:10203000180808F8080818000000203F20000000D9
:1020400008F808000008F808001F202020201F00C2
:102050000878880000C83808000007380E01000022
:10206000F80800F80008F800033C0700073C0300EC
:10207000081868808068180820302C03032C302052
:102080000838C800C83808000000203F20000000C1
:1020900010080808C8380800203826212020180019
:1020A000000000FE020202000000007F40404000ED
:1020B000000C30C000000000000000010638C00025
:1020C00000020202FE000000004040407F000000CD
:1020D000002010080408102000000000000000008C
:1020E00000000000000000008080808080808080F0
:1020F00000020408000000000000000000000000D2
:1021000000008080808000000019242222223F20CD
:1021100008F8008080000000003F112020110E0010
:102120000000008080800000000E1120202011009F
:10213000000000808088F800000E112020103F2051
:102140000000808080800000001F222222221300D5
:10215000008080F0888888180020203F2020000020
:102160000000808080808000006B949494936000D5
:1021700008F8008080800000203F210000203F20E0
:1021800000809898000000000020203F20200000E0
:10219000000000809898000000C08080807F0000D0
:1021A00008F8000080808000203F24022D302000AD
:1021B000000808F8000000000020203F2020000058
:1021C0008080808080808000203F20003F20003F72
:1021D000008080008080000000203F2100203F2000
:1021E0000000808080800000001F202020201F0031
:1021F000808000808000000080FFA12020110E0060
:102200000000008080808000000E112020A0FF8050
:10221000808080008080800020203F2120000100FD
:102220000000808080808000003324242424190052
:10223000008080E0808000000000001F202000005F
:102240008080000000808000001F202020103F20A0
:10225000808080000080808000010E300806010030
:1022600080800080008080800F300C030C300F00D5
:1022700000808000808080000020312E0E31200000
:10228000808080000080808080818E701806010030
:1022900000808080808080000021302C222130004E
:1022A00000000000807C020200000000003F40406F
:1022B00000000000FF00000000000000FF00000020
:1022C0000002027C800000000040403F000000004F
:1022D00000804040800000800000000000010100FC
:1022E0000000000000000000002F000000000700B8
:1022F000070000147F147F1400242A7F2A12002371
:10230000130864620036495522500000000700009F
:1023100000001C224100000041221C000014083E65
:1023200008140008083E0808000000A0600000082B
:10233000080808080000606000000020100804027F
:10234000003E5149453E0000427F4000004261513D
:102350004946002141454B31001814127F100027D7
:1023600045454539003C4A4949300001710905039A
:1023700000364949493600064949291E00003636CB
:10238000000000005636000000081422410000142E
:10239000141414140000412214080002015109060B
:1023A000003E4955592E007C1211127C007F49498C
:1023B0004936003E41414122007F4141221C007FBD
:1023C00049494941007F09090901003E4149497ACB
:1023D000007F0808087F0000417F41000020404145
:1023E0003F01007F08142241007F40404040007FB1
:1023F000020C027F007F0408107F003E4141413EF5
:10240000007F09090906003E4151215E007F09193C
:1024100029460046494949310001017F0101003F39
:102420004040403F001F2040201F003F4038403FB9
:10243000006314081463000708700807006151491D
:10244000454300007F4141000002040810200000C5
:1024500041417F000004020102040040404040402E
:10246000000001020400002054545478007F4844C6
:10247000443800384444442000384444487F0038FD
:102480005454541800087E0901020018A4A4A47C26
:10249000007F080404780000447D400000408084F0
:1024A0007D00007F102844000000417F4000007C38
:1024B00004180478007C0804047800384444443844
:1024C00000FC242424180018242418FC007C080490
:1024D000040800485454542000043F444020003C69
:1024E0004040207C001C2040201C003C4030403CF0
:1024F000004428102844001CA0A0A07C0044645480
:102500004C440000087F41000000007F00000000F4
:10251000417F0800000804081008A3AC0000000078
:102520000000000000000000000000000000005853
:1025300038000000000000000000000000A1A3001F
:10254000000000000000000000000000000000008B
:102550000000182424180000000000000000000003
:10256000C4E300008060F8074020180F08C808087E
:10257000281800010000FF00100C0340807F0001BC
:10258000061800BAC3001010F01F10F000808282FD
:10259000E2928A8680004022150816610000408081
:1025A0007F0000000000CAC000202020FE2020FF85
:1025B000202020FF20202020000000007F404047F6
:1025C000444444474040400000BDE700000000FE96
:1025D000929292FE929292FE0000000008080484FB
:1025E000621E010001FE020404080800E0CB00FCAA
:1025F00004FC0012641008F714549414F404000F3F
:10260000040F00047E011D13115599513F1100E084
:10261000B60000FC0404FC00905234107F103452C9
:102620009000000F04040F82825A562322524E82D9
:102630000200B4F30020202020202020FF202020B2
:10264000202020200080804020100C0300030C106C
:102650002040808000BCD200102C2424A4A465A6B5
:1026600024242424A4340C004049492924145289E8
:102670007F040A1110202000BAC3001010F01F10B0
:10268000F000808282E2928A86800040221508163D
:1026900061000040807F0000000000BCD700000007
:1026A000FE22222222FE22222222FE000000000020
:1026B0000702020202FF0202020207000000C8A98C
:1026C00000F212FE12FE12F200844F2414244F84F2
:1026D00000FF4A49484949FF004049497F4949406C
:1026E00000C5A8001060028C201808C838CF080860
:1026F0002898000004047E01040201FF4021060A1C
:1027000011204000B6C8000000FC242424FC25262B
:1027100024FC242424040040308F80844C5525253B
:1027200025554C80808000A3BA0000000000000006
:10273000000000000000000000000000363600002D
:1027400000000000000000000000D1CC00807000FC
:10275000FF1008FE424242FA424242FE00806018E8
:10276000070810FF50484641424C40FF00CEED00A4
:10277000100C055555D5057F0555555505140C000C
:102780001010108AA96B352525ABE9081010100030
:10279000BBF0000000C038000000FF00004020181F
:1027A00000000080814020100C0300030C1020402A
:1027B000808000D1E600807000FF1008209088879C
:1027C0004404948C800080601807083000FF444463
:1027D00040404444FF00D3D00004040484E43C2778
:1027E00024242424E40404040004020100FF090951
:1027F000090949897F00000000CEDE000040424206
:1028000042C27E42C242424240400000804020100C
:102810000C0300003F40404040700000B7E700005C
:1028200000FE021222C202C23202FE00000000803C
:10283000601F0020100C030C30000F3040F800C95E
:10284000C8000000FC242424252624242424243C1D
:10285000000040300F211549817F00211549817FFB
:102860000000B4F200101010FF109004040404FCE7
:1028700004040404000444827F0100000040807FBF
:102880000000000000BFAA0080828282FE82828255
:102890008282FE8282828000008040300F00000031
:1028A0000000FF0000000000B9D800000010111661
:1028B0001010F0101014131000000081814141210C
:1028C000110D030D11214141818100B1D50000F8A6
:1028D0000122202222A2FA22222202FE000000FF70
:1028E0000008040211201F000040807F0000D7B4C0
:1028F0000000083000FF20202020FF2020222C2074
:102900000004040201FF8040300E010618204080C0
:1029100000CCAC00000484844424548F14244484E8
:1029200084040000413900003C4040424C4040706B
:1029300004093100B5C600807000FF2010040404B3
:1029400004FC040404040080601807083000004000
:10295000807F0000000000000000FF01010131093C
:10296000090909897101010101FFFF8080808080D0
:10297000809681808080808080FFFF01818181FD41
:102980008991A1C1FD81818101FFFF808080809FAD
:10299000888482819F80808080FF0400000800007E
:1029A000000000000002000100001000CC29000817
:1029B000000000204400000028010008102A000840
:1029C00044000020940A00004401000800000000B8
:1029D00001020304010203040607080902040608B1
:1029E00000000000000000000000000000000000E7
:1029F00000000000000000000000000000000000D7
:102A000000000000000000000000000001000100C4
:04000005080000ED02
:00000001FF
