:020000040800F2
:100000001034002029020008290F0008F70C00080E
:10001000250F000863090008811D0008000000008A
:100020000000000000000000000000009101000836
:10003000AB0B000800000000D50100089D17000868
:10004000430200084302000843020008430200087C
:10005000430200084302000843020008430200086C
:10006000430200084302000843020008690900082F
:10007000430200084302000843020008430200084C
:10008000430200084302000843020008430200083C
:10009000430200084302000843020008430200082C
:1000A000430200084302000843020008430200081C
:1000B000430200084302000843020008430200080C
:1000C00043020008430200084302000843020008FC
:1000D00043020008430200088D1A0008430200088A
:1000E00043020008430200084302000800F002F83F
:1000F00000F03FF80AA090E8000C82448344AAF183
:100100000107DA4501D100F034F8AFF2090EBAE880
:100110000F0013F0010F18BFFB1A43F0010318473B
:100120006042000080420000103A24BF78C878C1C5
:10013000FAD8520724BF30C830C144BF04680C60ED
:10014000704700000023002400250026103A28BF35
:1001500078C1FBD8520728BF30C148BF0B60704739
:10016000642900F09780002070471FB51FBD10B5AF
:1001700010BD00F0FDFA1146FFF7F7FF01F00AFE8F
:1001800000F01BFB03B4FFF7F2FF03BC00F01EFB03
:10019000224B19680868B0E8F00F80F30988BFF3B4
:1001A0006F8F4FF0000080F311884EF00D0E7047F6
:1001B0000000000006480068006880F3088862B606
:1001C00061B6BFF34F8FBFF36F8F00DF00BF00BF7B
:1001D00008ED00E0EFF30980BFF36F8F0F4B1A6853
:1001E00020E9F00F106008B54FF0500080F311883F
:1001F000BFF34F8FBFF36F8F02F066FC4FF000002C
:1002000080F31188BDE8084019680868B0E8F00F6D
:1002100080F30988BFF36F8F704700BF6000002034
:10022000EFF3058070470000094880470948004700
:10023000FEE7FEE7FEE7FEE7FEE7FEE7FEE7FEE796
:10024000FEE7FEE704480549054A064B70470000F3
:10025000D1170008ED000008102E002010340020F7
:1002600010300020103000200FB41CB5084B06AA37
:100270007B4469460090059800F02BFA0446002064
:10028000694600F039FA20461CBC5DF814FB0000FA
:10029000850400002DE9F041064600241068752908
:1002A000314616A510D0AFF30080002802DA404294
:1002B00013A507E031688A0701D512A502E04907B6
:1002C00004D511A5012401E0AFF3008000210A222A
:1002D00006F1240709E0B0FBF2FCB0FBF2F302FBED
:1002E0001C00303078541846491C0028F3D12346AE
:1002F0002A463046BDE8F04100F08DB9000000000C
:100300002D0000002B000000200000002DE9F05F10
:10031000894604464FF0000ADFF874B1FB44C0F888
:1003200020A02046E1688847002874D0252806D000
:10033000D4E901219047206A401C2062F1E70026A1
:100340005F462046E16888472028054607DB312DB7
:1003500005D2781910F8200C08B10643F1E7B00770
:1003600001D526F00406C4F81CA00027C4F818A084
:100370002A2D09D0284601F005FD38B304EB870883
:10038000303DC8F8185019E059F8041B204604EB1A
:1003900087029161E1688847012F054618D1E0691D
:1003A000002820DA26F020061DE0D8F8180000EB1F
:1003B000800005EB40003038C8F818002046E1689E
:1003C0008847054601F0DEFC0028EED1012F0AD057
:1003D0002E2D08D12046E16888477F1C0546022F54
:1003E00046F02006C4DBA069002803DA404246F04C
:1003F0000106A061F00701D026F010066C2D0BD08D
:10040000682D09D04C2D39D06A2D35D0742D35D0BA
:100410007A2D33D016E038E0E1682F462046884731
:10042000B842054609D16C2F26D04FF48060E168B0
:10043000064320468847054604E06C2F1AD04FF447
:10044000807006430DB3A5F14100192802D820356C
:1004500046F400664A462946204626604E46FFF787
:100460007FFE80B101280BD0F61D26F0070000F1B9
:10047000080956E74020E4E78020D8E70020D6E7C7
:1004800006F104094DE7284652E7206ABDE8F09FCF
:100490004E40000030B505460B462A4613F8014B86
:1004A00012F8010B08B1A042F8D01CB1002802D00C
:1004B0006D1CF1E7284630BD032A40F2308010F071
:1004C000030C00F0158011F8013BBCF1020F6244EF
:1004D00098BF11F801CB00F8013B38BF11F8013B80
:1004E000A2F1040298BF00F801CB38BF00F8013B2D
:1004F00011F0030300F00581083AC0F0088051F8BC
:10050000043B083A51F804CBA0E80810F5E7121DA7
:100510005CBF51F8043B40F8043BAFF30080D207C6
:1005200024BF11F8013B11F801CB48BF11F8012B92
:1005300024BF00F8013B00F801CB48BF00F8012BB5
:1005400070474FF0000200B5134694469646203996
:1005500022BFA0E80C50A0E80C50B1F12001BFF47C
:10056000F7AF090728BFA0E80C5048BF0CC05DF8E2
:1005700004EB890028BF40F8042B08BF704748BF30
:1005800020F8022B11F0804F18BF00F8012B7047A4
:100590004FF0013C50F8042B51F8043B9A4221D112
:1005A000A2EB0C03934313EACC1317D150F8042B9E
:1005B00051F8043B9A4215D1A2EB0C03934313EA82
:1005C000CC130BD150F8042B51F8043B9A4209D1BB
:1005D000A2EB0C03934313EACC13DBD04FF00000E3
:1005E000704700BFD01A01BAB1FA81F101F01801C9
:1005F00022FA01F0CB40C1F12001DBB2C0B2C01A37
:100600002CFA01F3D11A914311EAC311E6D17047D4
:100610007047704770472DE9F0470D46994692465E
:10062000044600F124080168880604D5E06921F039
:100630001001216000E00120A84201DD471B00E01D
:100640000027A1697A1902EB0900081AA061207835
:10065000C00602D42046AFF30080002608E0D4E9AB
:1006600001211AF806009047206A401C761C20627F
:100670004E45F4DB2078C0060AD52046AFF3008053
:1006800006E0D4E9012130209047206A401C206216
:10069000381EA7F10107F4DC07E0D4E9012118F8BE
:1006A00005009047206A401C2062281EA5F1010524
:1006B000F3DC2046AFF300802078000602D502204C
:1006C000BDE8F0870120FBE701694A1C0261087858
:1006D000704700B58FB0CDE9013100210591054982
:1006E0007944CDE9031011466846FFF70FFE0FB0BD
:1006F00000BD0000E5FFFFFF0A6802F8010B0A6079
:10070000704710B5203AC0F00B80B1E81850203A7D
:10071000A0E81850B1E81850A0E81850BFF4F5AFA1
:100720005FEA027C24BFB1E81850A0E8185044BF2B
:1007300018C918C0BDE810405FEA827C24BF51F898
:10074000043B40F8043B08BF7047D20728BF31F88C
:10075000023B48BF11F8012B28BF20F8023B48BFDD
:1007600000F8012B7047000000487047AC2D0020B6
:100770007546FFF7F9FFAE4605006946534620F07F
:100780000700854618B020B5FFF75CFDBDE82040A6
:100790004FF000064FF000074FF000084FF0000B3D
:1007A00021F00701AC46ACE8C009ACE8C009ACE8F0
:1007B000C009ACE8C0098D46704710B50446AFF3D8
:1007C00000802046BDE81040FFF7DCBC014918203E
:1007D000ABBEFEE726000200704721B1826842F0FE
:1007E0000102826003E0826822F0010282607047A9
:1007F00021B1826842F48072826003E0826822F450
:10080000807282607047014600208A6802F004020C
:100810000AB1012000E000207047014600208A68EC
:1008200002F008020AB1012000E000207047000039
:1008300030B502460020002350680F4C20400D794F
:100840000C6844EA05242043506090680B4C20401B
:10085000D1E902542C434D7944EA45042043906089
:10086000D06A20F470000C7C641EE4B2234340EA9A
:100870000350D06230BD0000FFFEF0FFFDF7F1FF36
:10088000F0B504460D4600200021092D11DDE06879
:10089000A5F10A0606EB4607072606FA07F1884384
:1008A000A5F10A0606EB460603FA06F10843E060E6
:1008B0000CE0206905EB4507072606FA07F1884397
:1008C00005EB450603FA06F108432061072A0FDA13
:1008D000606B561E06EB86071F2606FA07F1884353
:1008E000561E06EB860605FA06F10843606322E011
:1008F0000D2A0FDA206BD61F06EB86071F2606FA95
:1009000007F18843D61F06EB860605FA06F1084371
:10091000206310E0E06AA2F10D0606EB86071F26B1
:1009200006FA07F18843A2F10D0606EB860605FAE2
:1009300006F10843E062F0BD816841F00801816082
:10094000704721B1826842F4A002826003E08268AD
:1009500022F4A00282607047816841F00401816046
:10096000704700BFFEE7000010B5022000F0DEF87F
:1009700090B10024002004E0084931F810100C4424
:10098000401C0528F8DB0520B4FBF0F00449088082
:10099000022000F007F800BF10BD00009C000020FE
:1009A0001800002000F0805111B10349086001E0F7
:1009B0000249486070470000040402400000024001
:1009C00021B1026842F00102026004E002684FF6C1
:1009D000FE731A400260704701684FF6FE721140C4
:1009E00001600021016041608160C1604B49884223
:1009F00008D14A490839496841F00F01474A083A85
:100A000051608AE045491431884208D14349083988
:100A1000496841F0F001414A083A51607DE03F49A0
:100A20002831884208D13D490839496841F470614C
:100A30003A4A083A516070E038493C31884208D15E
:100A400036490839496841F47041344A083A5160DE
:100A500063E032495031884208D130490839496849
:100A600041F470212D4A083A516056E02B49643117
:100A7000884208D129490839496841F47001274A58
:100A8000083A516049E025497831884208D1234924
:100A90000839496841F07061204A083A51603CE0E9
:100AA0001F49884206D1011F096841F00F01021F4A
:100AB000116032E01A491431884208D11849091FDF
:100AC000096841F0F001164A121F116025E014492F
:100AD0002831884208D11249091F096841F4706120
:100AE0000F4A121F116018E00D493C31884208D1AD
:100AF0000B49091F096841F47041094A121F11602E
:100B00000BE007495031884207D10549091F0968A0
:100B100041F47021024A121F116070470800024020
:100B2000080402400146486880B270470146002030
:100B3000002201F0805313B1054B1A6801E0054B08
:100B40001A6802EA01030BB1012000E0002070479F
:100B500000040240000002401AB103680B43036026
:100B600002E003688B430360704710B500220268FF
:100B700047F6F0739A430C6A8B6823430C6923434E
:100B80004C6923438C692343CC6923434C6A234338
:100B90008C6A23431A430260CB6843600B6883600E
:100BA0004B68C36010BD41607047704710B520218D
:100BB000014800F08EF810BD000801402DE9F04119
:100BC000024600250026002000230024002791F87B
:100BD00003C00CF00F0591F803C00CF0100CBCF131
:100BE000000F03D091F802C04CEA050591F800C04F
:100BF000BCF1000F31D0146800202BE04FF0010C45
:100C00000CFA00F3B1F800C00CEA03069E4220D1B2
:100C100083004FF00F0C0CFA03F7BC4305FA03FCFA
:100C20004CEA040491F803C0BCF1280F06D14FF040
:100C3000010C0CFA00FCC2F814C00AE091F803C0E1
:100C4000BCF1480F05D14FF0010C0CFA00FCC2F8C2
:100C500010C0401C0828D1D31460B1F800C0BCF10A
:100C6000FF0F34DD546800202EE000F1080C4FF037
:100C7000010808FA0CF3B1F800C00CEA03069E4222
:100C800021D183004FF00F0C0CFA03F7BC4305FA97
:100C900003FC4CEA040491F803C0BCF1280F05D111
:100CA00000F1080C08FA0CF8C2F8148091F803C09F
:100CB000BCF1480F07D100F1080C4FF0010808FA09
:100CC0000CF8C2F81080401C0828CED35460BDE850
:100CD000F0810246002093680B400BB1012000E038
:100CE0000020704741617047016170470AB101619E
:100CF00000E04161704700BFFEE700004CF6CC40C9
:100D000001490860704700000030004010B545F20E
:100D1000555000F021F8042000F012F840F2712044
:100D200000F014F800F004F8FFF7E8FF10BD000031
:100D30004AF6AA20014908607047000000300040D0
:100D40000149486070470000003000400149886058
:100D50007047000000300040014908607047000003
:100D60000030004010B5044614B1012C12D108E047
:100D70004FF400510948FFF7B5FF012008490880EA
:100D800009E04FF400510548FFF7AEFF0020044989
:100D9000088000E000BF00BF10BD0000001001404F
:100DA0001400002008B50121102000F009FC4FF4C8
:100DB0000050ADF8000010208DF8030001208DF8E0
:100DC000020069460448FFF7F9FE4FF4005102485B
:100DD000FFF78AFF08BD00000010014000B58BB08E
:100DE0000121084600F0CCFB124800901248019007
:100DF00000200290052003900020049080200590A0
:100E00004000069080000790202008900002099082
:100E100000200A9069460948FFF7A7FE0122022137
:100E20000648FFF799FE01210448FFF7C9FD0BB002
:100E300000BD00004C2401409C000020080002403E
:100E400000B587B001214FF4017000F0B9FB00201C
:100E50008DF81B008020ADF8180006A92348FFF785
:100E6000ADFE48208DF81B004020ADF8180006A903
:100E70001E48FFF7A3FE01211D48FFF7B9FCFFF74D
:100E8000ADFF002001908DF8080001208DF80900C9
:100E90004FF4602003900020049001208DF814008E
:100EA00001A91348FFF7C4FC01211148FFF795FC85
:100EB0000F48FFF741FD00BF0D48FFF7AEFC0028CB
:100EC000FAD10B48FFF748FD00BF0948FFF79BFC2C
:100ED0000028FAD10523012207210548FFF7D0FC9D
:100EE00001210348FFF72DFD07B000BD00080140B8
:100EF0000024014008B50B208DF8000006208DF875
:100F0000010001208DF802008DF80300684600F012
:100F10000DF808BD10B540210148FFF7DAFE10BDFD
:100F20000008014000BFFEE77047000070B50021D7
:100F300000230F22C47804B3154C246804F4E06441
:100F4000C4F5E064210AC1F10403CA40447804FAFC
:100F500003F184781440214309010E4C0678A15511
:100F6000047804F01F050124AC4005786D11AD0034
:100F700005F1E025C5F8004109E0047804F01F05FB
:100F80000124AC40044D0678761145F8264070BD2A
:100F90000CED00E000E400E080E100E002490143E4
:100FA000024A1160704700000000FA050CED00E0F5
:100FB0002DE9F04304460D4616461F467F2C01DD01
:100FC000BDE8F0833F2D00DDFAE7A119802902DD9D
:100FD000C4F18001CEB2E919402902DDC5F140011A
:100FE000CFB2284630E0234629E04FEAE07C00EB10
:100FF0005C7C4FEAEC0CDFF85C8008EBCC1C1CF846
:1010000003C002464FEAE07800EB58784FEAE80860
:10101000A0EBC8094FF0010808FA09F82CEA080CFF
:1010200001464FEAE07800EB58784FEAE808DFF82D
:10103000249009EBC81808F803C0591CCBB2A119B9
:101040009942D2DC411CC8B2E9198142CBDC00BF15
:10105000B6E700000A01002008B50121082000F0D1
:10106000AFFA14208DF80300C020ADF80000032073
:101070008DF8020069460548FFF7A0FD012000F049
:101080002FFA012000F036FA08BD0000000C0140E4
:1010900070B50546002411E080212141294009B1A5
:1010A000012100E00021084600F024FA012000F0B0
:1010B00017FA002000F014FA601CC4B2082CEBDB15
:1010C000012000F017FA012000F00AFA002000F0D9
:1010D00007FA70BD10B5012000F002FA012000F0FF
:1010E00009FA002000F006FA002000F0F9F910BD1E
:1010F00010B5002000F0FEF9012000F0F1F9012008
:1011000000F0F8F910BD10B5FFF7A6FFAE2000F013
:10111000FBF9D52000F0F8F9802000F0F5F9A820BF
:1011200000F0F2F93F2000F0EFF9D32000F0ECF9E5
:10113000002000F0E9F9402000F0E6F9A12000F0DD
:10114000E3F9C82000F0E0F9DA2000F0DDF9122020
:1011500000F0DAF9812000F0D7F9CF2000F0D4F9BF
:10116000D92000F0D1F9F12000F0CEF9DB2000F019
:10117000CBF9302000F0C8F9A42000F0C5F9A62072
:1011800000F0C2F98D2000F0BFF9142000F0BCF986
:10119000AF2000F0B9F910BD10B50246012000E003
:1011A00050430B1EA1F10101FAD110BD70B50546E7
:1011B0000C46A01CC4B245F0B00000F0A5F9102107
:1011C00041EA141000F0A0F904F00F0000F09CF9BF
:1011D00070BD0000F8B506460F4614461D46082DA2
:1011E0000CD1A4F120000E4901EB001010230822BD
:1011F00039460090304600F065F80FE0062D0DD11D
:10120000A4F1200000EB4000064901EB4000082358
:10121000062239460090304600F054F8F8BD000030
:10122000C4360008B43C00082DE9FC4780468946D6
:10123000164600270020019000253AE0705D01A9C4
:10124000C855781CC7B2022F31DB002700240CE000
:10125000C4EBC40101EB8101184A881801A9FFF70A
:1012600097F900B90CE0601CC4B2C4EBC40101EBF7
:101270008101124A881812A1FFF78AF90028E7D1E4
:1012800000BFC4EBC40000EB80000C490844C01C44
:1012900005F1010A0AEBDA714910491E08EB011148
:1012A0000090C8B210231A46494600F00BF8681C9B
:1012B000C5B2705D0028C1D1BDE8FC87EE3E0008D4
:1012C000000000002DE9F04707460C46904699467D
:1012D000DDF820A07F2F01DDBDE8F0873F2C00DD89
:1012E000FAE74B46424621463846FFF761FE0025A5
:1012F00070E0002669E0B8197F2800DD67E0E1179B
:1013000004EB517105EBE101072900DDE4E720461C
:10131000E21704EB527205EBE202344B03EBC2120C
:10132000BB19D25C2146E31704EB5373DB10A4EB2B
:10133000C30305FB086C1AF80CC00CFA03FC42EA64
:101340000C02E31704EB537305EBE303DFF89CC0D7
:101350000CEBC31307EB060C03F80C20E11704EBAE
:10136000517105EBE101491C072900DD2BE0204606
:10137000E21704EB527205EBE202521C1B4B03EB2B
:10138000C212BB19D25C2146E31704EB5373DB1086
:10139000A4EBC303C3F1080305FB086C1AF80CC0E7
:1013A0004CFA03FC42EA0C02E31704EB537305EB1F
:1013B000E3035B1CDFF834C00CEBC31307EB060C34
:1013C00003F80C2000BF701CC6B2464593DB00BF7B
:1013D000681CC5B2A9F10100C11700EB51710122CF
:1013E00002EBE101A94284DC00BF75E70A0100209D
:1013F0002DE9F0470646894617461D46DDF8208050
:10140000002417E0281B411E0A20FFF7C5FEB7FB8A
:10141000F0F00A21B0FBF1F201FB120000F1300AFA
:1014200004FB0861C8B2434652464946FFF7D2FE64
:10143000601CC4B2AC42E5DBBDE8F08710B5002407
:101440000BE000212046FFF7B1FE054901EBC41077
:10145000802100F069F8601CC4B2082CF1DB10BDDB
:101460000A0100202DE9F04105460C461746984632
:101470007F2D01DDBDE8F0813F2C00DDFAE7E819A2
:10148000802802DDC5F18000C7B204EB08004028C7
:1014900003DDC4F1400000F0FF082046E11704EB33
:1014A0005171C1F3C7060CE029463046FFF77EFEB6
:1014B0000A4901EBC6114819394600F035F8701C8D
:1014C000C6B204EB0801481EC11700EB517101229E
:1014D00002EBE101B142E7DC00BFCBE70A010020EB
:1014E00010B50446224640210148FFF7FFFB10BD1E
:1014F000000C014010B50446224680210148FFF748
:10150000F5FB10BD000C014010B50446FFF7E2FDED
:101510007820FFF7BDFD0020FFF7BAFD2046FFF75A
:10152000B7FDFFF7E5FD10BD70B505460E46FFF7A8
:10153000D1FD7820FFF7ACFD4020FFF7A9FD002486
:1015400004E0285DFFF7A4FD601CC4B2B442F8DBE0
:10155000FFF7CEFD70BD000010B5044621460248DD
:1015600000F000FA10BD00000004004010B5044671
:101570002146024800F0F8F910BD000000040040C8
:1015800029B1064A52690243044B5A6104E0034AF6
:1015900052698243014B5A617047000000100240BB
:1015A00029B1064AD2690243044BDA6104E0034AD6
:1015B000D2698243014BDA6170470000001002409B
:1015C00029B1064A92690243044B9A6104E0034A36
:1015D00092698243014B9A617047000000100240FB
:1015E00030B500210022002400232D4D6D6805F048
:1015F0000C0121B1042905D0082923D105E0294D8A
:10160000056022E0274D05601FE0254D6D6805F45B
:101610007012234D6D6805F48034022505EB92426B
:101620001CB9214D554305600BE01D4D6D6805F457
:1016300000351DB11C4D5543056002E0194D554361
:10164000056002E0174D056000BF00BF144D6D68D6
:1016500005F0F0010909154D6B5C0568DD4045603A
:101660000F4D6D6805F4E061090A104D6B5C45682B
:10167000DD4085600A4D6D6805F46051C90A0B4D67
:101680006B5C4568DD40C560054D6D6805F4404103
:10169000890B074D6B5CC568B5FBF3F5056130BD83
:1016A0000010024000127A0000093D0000000020F6
:1016B0001000002010B500F001F810BD0CB500209E
:1016C000019000903348006840F480303149086050
:1016D00000BF3048006800F4003000900198401CC2
:1016E0000190009818B90198B0F5A06FF1D1294880
:1016F000006800F4003010B10120009001E00020EB
:1017000000900098012843D12348006840F0100061
:10171000214908600846006820F003000860084678
:10172000006840F0020008601A48406819494860A3
:101730000846406848600846406840F48060486059
:101740000846406820F47C1048600846406840F431
:10175000E81048600846006840F08070086000BFEC
:101760000C48006800F000700028F9D00948406873
:1017700020F00300074948600846406840F0020036
:10178000486000BF0348406800F00C000828F9D109
:101790000CBD0000001002400020024010B500BF48
:1017A000502080F31188BFF34F8FBFF36F8F00BFBE
:1017B00001F014FD18B14FF080500449086000BFDB
:1017C000002080F3118800BF10BD000004ED00E090
:1017D00010B51348006840F0010011490860084640
:1017E0004068104908400E494860084600680E49A4
:1017F00008400B4908600846006820F48020086013
:101800000846406820F4FE0048604FF41F008860DE
:10181000FFF750FF4FF000600449086010BD000062
:10182000001002400000FFF8FFFFF6FE08ED00E0A8
:1018300021B1028842F00102028004E002884FF6E2
:10184000FE731A400280704770B500240022002306
:10185000058C4FF6FF6635400584028C8388848BA7
:101860004FF68F752C404FF6FC752C400D882C439D
:101870004FF6FF552A400D894FF6FF7606EA0525FB
:101880002A434D8806EA05252A43154DA84202D071
:10189000144DA8421DD14FF2FF752A404D894FF6D5
:1018A000FF7606EA05252A434FF6FF352A408D8844
:1018B00006EA05252A434EF6FF752B404DF6FF75C7
:1018C0002B408D8906EA05152B43CD8906EA0515BF
:1018D0002B4383808483CD888587028470BD00007C
:1018E000002C01400034014070B500220023002488
:1018F000058C4EF6FF7635400584038C8488828BF8
:1019000048F6FF752A404FF6FF452A400D884FF6EE
:10191000FF7606EA05252A434DF6FF752B400D8913
:1019200006EA05352B434D8806EA05352B430B4D5A
:10193000A84202D00A4DA84208D14BF6FF752C40B0
:101940008D894FF6FF7606EA85152C4384808283C5
:10195000CD88A0F84050038470BD0000002C0140E9
:101960000034014081877047A0F8401070470000A4
:10197000002202881D4B98420ED01D4B98420BD07E
:10198000B0F1804F08D01B4B984205D01A4B9842BB
:1019900002D01A4B984204D14FF68F731A404B88ED
:1019A0001A43174B984207D0164B984204D04FF673
:1019B000FF431A40CB881A4302808B8883850B88AB
:1019C00003850A4B98420BD0094B984208D00E4B26
:1019D000984205D00D4B984202D00D4B984201D150
:1019E0000B7A03860123838270470000002C01409C
:1019F000003401400004004000080040000C00409A
:101A0000001000400014004000400140004401402C
:101A10000048014000B58BB001210846FFF7B0FD3A
:101A20001748FEF7D9FF174800901748019000208B
:101A300002906420039000200490802005900020F4
:101A400006900790202008900002099000200A903C
:101A500069460B48FFF789F801210948FEF7B0FFF6
:101A6000012240210748001F00F0B5F8012240F292
:101A700024410448001F00F0EEF80BB000BD000048
:101A80006C00024004440040A600002008B540F26B
:101A90002441114800F0B5F8E8B10F4800880090E3
:101AA0000D48001D0088009000210C48FEF788FFBB
:101AB0000A48FFF737F8C0F164000949088001209F
:101AC0000849087064210548FFF76DF801210348B3
:101AD000FEF776FF00BF08BD004400406C000240E6
:101AE0001A0000201C00002000B587B00121480426
:101AF000FFF756FD01210420FFF762FD18208DF845
:101B00001B000420ADF8180003208DF81A0006A968
:101B10001B48FFF753F804208DF81B000820ADF890
:101B2000180006A91648FFF749F84FF4165002901E
:101B30000020ADF80C00ADF80E00ADF81000ADF8C7
:101B400014000C20ADF8120002A90E4800F0A8F80D
:101B500001210C4800F033F8FFF75CFF26208DF8D8
:101B6000040007208DF8050000208DF806000120F4
:101B70008DF8070001A8FFF7D9F907B000BD0000F4
:101B8000000801400044004010B5044621460548C5
:101B900000F0F2F800BF8021024800F025F800288C
:101BA000F9D010BD0044004010B5044603E014F81D
:101BB000010BFFF7E9FF20780028F8D110BD21B113
:101BC000828942F40052828104E082894DF6FF73DB
:101BD0001A40828170471AB1838A0B43838202E0E4
:101BE000838A8B438382704702460020B1F5007FD1
:101BF00000D100BF13880B400BB1012000E0002092
:101C0000704770B50246002400230025002040F6EE
:101C10006A16B14200D100BFC1F3421501F01F03A3
:101C2000012606FA03F3012D02D19689334006E01E
:101C3000022D02D1168A334001E0968A33400C12FD
:101C4000012606FA04F41688344013B10CB10120C1
:101C500000E0002070BDF0B50346002400260025FA
:101C6000002040F66A17B94200D100BF1846C1F300
:101C7000421401F01F06012707FA06F5012C01D1D5
:101C80000C3004E0022C01D1103000E014301AB105
:101C900007682F43076002E00768AF430760F0BDA5
:101CA0002DE9F04786B005460E460024A24600BF47
:101CB000A1460027B08900B100BF2F462C8A4CF600
:101CC000FF700440F08804432C82AC894EF6F31078
:101CD0000440B08831890843718908430443AC81CA
:101CE000AC8A4FF6FF400440B0890443AC8201A89F
:101CF000FFF776FC1F48874202D1DDF810A001E013
:101D0000DDF80CA0A88900F4004040B10AEBCA003D
:101D100000EB0A1031684900B0FBF1F807E00AEB6C
:101D2000CA0000EB0A1031688900B0FBF1F86420AA
:101D3000B8FBF0F004012009642101FB1089A88997
:101D400000F4004040B1322000EBC900B0FBF1F0DC
:101D500000F00700044308E0322000EB0910642182
:101D6000B0FBF1F000F00F0004432C8106B0BDE899
:101D7000F087000000380140C1F3080282807047FC
:101D800000BFFEE730380A2801D20120704700204A
:101D9000704700001CB54FF44070FFF7FFF8FFF7E5
:101DA0005BF9FFF7B0F9FFF74BF8FFF7A3F800F086
:101DB000BDF8FFF799FEFEF7F5FFFEF7A7FF2AA093
:101DC000FFF7F2FE2CA200210846FFF72DFA2DA204
:101DD00010210020FFF728FA2CA220210020FFF775
:101DE00023FA2DA230210020FFF71EFAFFF726FB71
:101DF00000220621052000F09FFF2A4908600022EA
:101E00000621012000F098FF274908602748022199
:101E100000230A02CDE9001025A1274801F0C2F9EC
:101E20002648032100234FF40072CDE9001024A1BD
:101E3000254801F0B7F92548012100234A02CDE9E0
:101E4000001023A1244801F0ADF924480421002307
:101E5000CA01CDE9001022A1234801F0A3F900F046
:101E600005FE00BFFEE7000073797374656D207393
:101E7000746172740D0A0000D1CCCEEDC5A8B6C84D
:101E8000A3BA0000BBF0D1E6A3BA0000B7E7C9C807
:101E9000D7B4CCACA3BA0000B5C6D7B4CCACA3BA07
:101EA0000000000024000020280000202C0000205A
:101EB00053656E736F720000312A000830000020F5
:101EC000436F6E74726F6C00152800083400002098
:101ED0004F4C454400000000352900083800002020
:101EE0005541525400000000312B000810B501216B
:101EF0000548FEF7F9FE02210348FEF7F3FE012034
:101F00000249087010BD0000000C014016000020BE
:101F100010B504462046FFF71FFB0020FFF726FB05
:101F200001200149087010BD1600002000B589B0DD
:101F300001210820FFF744FB01210220FFF730FBBD
:101F40000320ADF8200018208DF8230003208DF821
:101F5000220008A91748FEF731FE40F2E730ADF83D
:101F600018004720ADF814000020ADF81A00ADF8B5
:101F7000160005A91048FFF7FBFC6020ADF804002F
:101F80000420ADF806000020ADF80A00ADF80C0002
:101F900001A90948FFF758FC0020ADF80A0001A983
:101FA0000548FFF7A1FC01210348FFF741FC09B0F8
:101FB00000BD0000000C01400004004010B50321EA
:101FC0000348FEF78FFE00200249087010BD000094
:101FD000000C01401600002010B50020FFF7BCFAED
:101FE0000020FFF7C3FA00200149087010BD00006F
:101FF000160000202DE9F047054689461948066875
:10200000194807681948D0F8008019480068001D71
:1020100000F06EFB50B91648006890F82C100120B3
:1020200088401449096881431248016074191048B6
:1020300000684460B44206D20D480168091D40465C
:1020400000F07AFB0BE00A480168091D384600F0F1
:1020500073FB09480068844201D207480460BDE868
:10206000F08700007000002064000020680000205D
:1020700060000020740000208C00002010B5044691
:1020800000F074FB32480068401C31490860314858
:10209000006840B92F4804600846006801280DD147
:1020A00000F0B8F90AE02C48006838B929480068FF
:1020B000C06AE16A884201D826480460274800685F
:1020C000401C2649086000BF94F82C10012088406D
:1020D0002349096808432249086000BFE16A01EB0F
:1020E0008101204A02EB81014868A0608268E260B9
:1020F000211D826851608160E16A01EB8101194A0A
:1021000002EB81026261E16A01EB8101154A52F83A
:102110002110491CE26A02EB8202124B43F82210A2
:1021200000BF00BF00F034FB0B48006878B100BF6F
:1021300008480068C06AE16A884207D24FF08050C0
:1021400009490860BFF34F8FBFF36F8F00BF10BD09
:102150006C00002060000020780000208800002033
:10216000740000200C2D002004ED00E0704770B5D5
:1021700004460D46206C70B1216CE0680144E160BA
:10218000D4E90210884201D32168E1602846226C1C
:10219000E168FEF791F970BD2DE9F04104460F4664
:1021A00015464FF00008A66B206C48B9206800283F
:1021B0002CD1A06801F0E2F880460020A06025E064
:1021C0007DB93946226C6068FEF776F9216C60684B
:1021D00008446060D4E90101884217D32068606038
:1021E00014E03946226CE068FEF766F9216CE0687D
:1021F000411AE1602168E068884203D2216CA0683E
:10220000411AE160022D01D106B1761E701CA06357
:102210004046BDE8F0810000F0B587B001260027F8
:10222000002408E012A0005D03A9085503A8005D82
:1022300000B902E0641C102CF4DB00BF002510E0A4
:102240000D4F0E4800EB850000210B468022CDE9A2
:10225000001003A9384600F0A5FF064606B902E0C3
:102260006D1C012DECDB00BF304607B0F0BD000057
:1022700049444C450000000049230008900000201C
:102280002DE9FF5F0746884616469946DDE90EAB05
:10229000B00000F09BF9054675B1542000F096F9A6
:1022A00004462CB154212046FEF74BF9256304E087
:1022B000284600F07DFA00E0002454B100204B468F
:1022C00032464146CDE900ABCDE90240384600F048
:1022D00062F8204604B0BDE8F09F000030B54FF42E
:1022E0002053144800F007042CB1C01D20F0070053
:1022F000104C041B1B1B104C206000240E4D6C6006
:10230000C218083A22F007020C4C226000240B4D40
:102310002D686C60094D2D682C600146541A4C6084
:10232000064C24680C60064D4C682C60054D4C68CA
:102330002C6030BD0A05002040000020480000202D
:10234000500000204C00002000BFFFF70FFF0648A0
:1023500000680128F9D94FF0805004490860BFF3A4
:102360004F8FBFF36F8FF0E70C2D002004ED00E0DE
:102370002DE9F04106460D4617469846069C0DB9D4
:10238000246000E02760E66325640121204600F018
:10239000F9FCBDE8F0812DE9FF5F80460E469146CD
:1023A000DDE90E7A109CA9F10100216B01EB800B95
:1023B0002BF0070B7EB1002507E0715D04F13400BE
:1023C0004155705D00B902E06D1C102DF5D300BFC2
:1023D000002143200155052F00D30427E7626764DD
:1023E000201D00F0A6F904F1180000F0A2F9246104
:1023F000C7F10500A061646241465846039A00F0A7
:1024000065F92060BAF1000F01D0CAF80040BDE8BC
:10241000FF9F000010B5002407E004EB84010C4A84
:1024200002EB810000F078F9641C052CF5D3094813
:1024300000F072F9084800F06FF9084800F06CF9F4
:1024400004480749086004480649086010BD0000B8
:102450000C2D0020702D0020842D0020982D0020B0
:10246000640000206800002010B50146164800E016
:10247000006803688B42FBD30246436813448B42D7
:1024800004D143684C682344436001460A464B68C4
:1024900013440468A34211D10C4C03682468A3427E
:1024A00008D04B680468646823444B6003681B6869
:1024B0000B6005E0054B1B680B6001E003680B60D7
:1024C000884200D0016010BD40000020480000207C
:1024D00070B5054600F04AF9A86B08B9012400E080
:1024E000002400F055F9204670BD70B5054600F097
:1024F0003DF9A86BE96B884201D1012400E000247A
:1025000000F046F9204670BD09480068006808B927
:10251000012000E0002020B14FF0FF3005490860A5
:1025200005E003480068C068006802490860704719
:10253000640000208C00002000BF502080F3118830
:10254000BFF34F8FBFF36F8F00BF00BFFEE770B5C3
:10255000044600F00BF994F9455010E0606A08B9A0
:10256000012000E0002038B904F1240000F060FFF1
:1025700018B100F0D9F900E003E0681E45B2002D63
:10258000ECDC00BFFF2084F8450000F001F900F00A
:10259000EDF894F9445010E0206908B9012000E0FA
:1025A000002048B904F1100000F042FF08B100F02B
:1025B000BBF9681E45B200E001E0002DECDC00BF75
:1025C000FF2084F8440000F0E3F870BD2DE9F047E7
:1025D00004464FF00009DCB114F1090F01D90120C4
:1025E00000E0002098B9083404F0070080B104F03E
:1025F0000700C0F10808C8F1FF30A04201D2012055
:1026000000E0002008B9444402E0002400E0002477
:1026100000F052FA2848006808B9FFF75FFE012071
:1026200000EBE470002841D0002C3FD02348006824
:1026300084423BD8224E3046056801E02E462D6884
:102640006868A04202D228680028F7D11A480068BA
:1026500085422BD0306800F108092868306068682E
:10266000001B102807D92F196868001B78606C6060
:10267000306838603760114968680968081A0F497E
:102680000860084600680F490968884203D20B4871
:1026900000680C490860686840F0004068600020ED
:1026A000286009480068401C0749086000F04CFF9A
:1026B0004846BDE8F0870000480000204C0000209C
:1026C000400000205000002054000020001F4FF068
:1026D00080730360001F21F001030360001F034BA0
:1026E0000360143802602038704700003925000864
:1026F00001460A69D1E901309860D1E901035860C7
:102700005068884201D188685060002008611068D4
:10271000401E10601068704700F1080141604FF0E2
:10272000FF31816000F10801C16001610021016099
:10273000704700210161704710B502460B685C1CB0
:102740000CB9106907E002F1080000E04068446835
:1027500024689C42FAD944684C604C68A160886047
:1027600041600A611468641C146010BD00BF5020F1
:1027700080F31188BFF34F8FBFF36F8F00BF034803
:102780000068401C01490860704700005C000020A0
:1027900006480068401E054908600846006820B9E0
:1027A000002080F3118800BF00BF70475C0000204C
:1027B00070B506463546E6B1083D2C466068C00F48
:1027C000B8B12068A8B9606820F00040606000F0EF
:1027D00073F908496068096808440649086020469A
:1027E000FFF742FE04480068401C0349086000F0FF
:1027F000ABFE70BD4C0000205800002000204FF0C0
:10280000E02108618861024848610720086170473B
:102810003F1901001FB5002455E04FF0FF3202A917
:102820002948006800F010FC012849D1FEF780FA21
:10283000BDF80800B0F5FA6F03DD012023490870E8
:1028400008E0BDF8080040F2A461884202DA0020E6
:102850001E4908701D480078012805D0BDF80A00FF
:1028600010B19DF80C0008B9012000E000200546D9
:1028700035B10020FEF776FAFFF738FB012407E0B8
:10288000012C05D10120FEF76DFAFFF797FB00241C
:10289000BDF80800ADF800000D4800788DF8020082
:1028A0000C4800788DF803009DF80C008DF80400AA
:1028B0000223002269460848006800F0B3FA00BF0E
:1028C000642000F00BF8A8E724000020200000207E
:1028D00016000020140000202800002070B50446D7
:1028E000002544B100F0E8F800212046FFF782FB04
:1028F00000F02AFE05463DB94FF0805003490860BC
:10290000BFF34F8FBFF36F8F70BD000004ED00E089
:102910000349096801600349096841607047000084
:1029200084000020700000200120014908607047E9
:10293000800000200EB557E0002201A92B48006856
:1029400000F082FB01284BD19DF80800012805D139
:1029500027A210213020FEF767FC04E026A21021F8
:102960003020FEF761FC9DF8060028B924A2202142
:102970005020FEF759FC04E023A220215020FEF74E
:1029800053FC9DF8070028B91DA230214020FEF716
:102990004BFC04E01CA230214020FEF745FC08203F
:1029A0000090BDF80420042300215020FEF720FDF4
:1029B0001023202200215020FEF754FD1023202256
:1029C00019463020FEF74EFD1023202211465020DC
:1029D000FEF748FD1023202230214020FEF742FD63
:1029E0004FF49670FFF77AFFA6E70000280000205A
:1029F000CEDEBBF000000000D3D0BBF00000000032
:102A0000B9D8B1D500000000B4F2BFAA00000000A0
:102A100070B505460C460548016818312846FFF791
:102A20008BFE01212046FFF7E5FA70BD6000002013
:102A30001CB515E00B480088ADF80000FEF76AFAF7
:102A4000ADF80200FEF7B2F88DF8040000235A1E1C
:102A500069460548006800F0E5F96420FFF73EFF8D
:102A6000E8E70000180000202400002010B5FFF760
:102A7000D3FB0446012C14D100BF502080F31188F1
:102A8000BFF34F8FBFF36F8F00BF4FF0FF3006498A
:102A9000086001200549086000200549086000F031
:102AA00031F90448006810BD8C0000207800002037
:102AB000700000209400002002480068401C01497A
:102AC00008607047980000201448006818B1012081
:102AD0001349086021E000201149086000BF114837
:102AE0000068B0FA80F0C0F11F0100BF01EB810265
:102AF0000D4B03EB820042685268426000F108020D
:102B00004368934201D1C26842604268D268074B71
:102B10001A6000BF00BF1846006870479800002088
:102B200080000020740000200C2D00206000002098
:102B30008CB07EE000220AA93E48006800F0FEF951
:102B40003D4801780078401C3B4A1070642914DB32
:102B50000020114608709DF82B009DF82A10CDE941
:102B600000109DF82C30BDF8282034A102A8FDF7F4
:102B70007BFB02A8FFF718F800BF36480078002852
:102B800054D000203349087000213348334A12885A
:102B9000815433A1FDF77EFC48B10020FEF7E2F836
:102BA00031A0FFF701F834A0FEF7FEFF3EE039A1A7
:102BB0002948FDF76FFC60B10120FEF7D3F82648E5
:102BC000FEF7F2FF29A0FEF7EFFF35A0FEF7ECFFBE
:102BD0002CE03AA12048FDF75DFC68B14FF47A7013
:102BE000FFF796F91C48FEF7DFFF20A0FEF7DCFF99
:102BF0002BA0FEF7D9FF19E032A11748FDF74AFCD8
:102C000058B1FFF7E9F91448FEF7CEFF17A0FEF719
:102C1000CBFF23A0FEF7C8FF08E00F48FEF7C4FF74
:102C20002BA0FEF7C1FF2EA0FEF7BEFF0A20FFF784
:102C300055FE7FE7280000203C0000203C533A2549
:102C4000642C463A25642C4D3A25642C4C3A256474
:102C50003E0D0A001C000020A60000201A000020E3
:102C60006F6E6C69676874006F70656E2073756352
:102C7000636573730D0A0000706C65617365206590
:102C80006E7465722074686520636F6D6D616E642B
:102C90000D0A00006F66666C6967687400000000CA
:102CA000706C6561736520656E746572207468650B
:102CB00020636F6D6D616E64310D0A006F6E6D6F14
:102CC000746F72006F66666D6F746F720000000043
:102CD0002073656E64206572726F7221210D0A0087
:102CE000706C6561736520656E74657220746865CB
:102CF0002076616C696420636F6D6D616E640D0A8E
:102D00000000000010B50A48006840F47F00084940
:102D100008600846006840F07F400860FFF76EFDDD
:102D2000002004490860FDF745FA002010BD0000AE
:102D300020ED00E05C0000202DE9F84304460E463B
:102D400017460025DCB1681EB0FBF4F0B04216D384
:102D500004FB06F010F1490F11D804FB06F909F144
:102D60004800FFF733FC05464DB1A84608F1480876
:102D70003B464246314620460095FFF7F9FA284681
:102D8000BDE8F8832DE9F04105460E4601272C46A3
:102D9000002C41D0E06B00283ED0B91EE06BB1FBA7
:102DA000F0F0216C884237D3FFF7E0FCD4E90F1232
:102DB000206801FB0200A0600020A0632068606022
:102DC000E06B401E226C216800FB0211E160FF20D5
:102DD00084F8440084F845009EB9206908B90120B0
:102DE00000E00020A8B904F1100000F021FB80B140
:102DF0004FF080500A490860BFF34F8FBFF36F8FC9
:102E000007E004F11000FFF787FC04F12400FFF74E
:102E100083FCFFF7BDFC00E000273846BDE8F081E9
:102E200004ED00E02DE9FF4383B0074688461D46C8
:102E30004FF000093C4600BFFFF798FCA06BE16B28
:102E4000884201D3022D28D12A4641462046FFF769
:102E5000A3F90646606A08B9012000E0002068B9BD
:102E600004F1240000F0E4FA88B14FF080503249B8
:102E70000860BFF34F8FBFF36F8F08E03EB14FF094
:102E800080502D490860BFF34F8FBFF36F8FFFF75E
:102E90007FFC012007B0BDE8F083059818B9FFF763
:102EA00077FC0020F6E7B9F1000F04D101A8FFF785
:102EB0002FFD4FF00109FFF76BFCFFF7FDFDFFF75A
:102EC00055FC94F94400401C10B9002084F84400DB
:102ED00094F94500401C10B9002084F84500FFF724
:102EE00057FC05A901A800F031F9F0B92046FFF719
:102EF000FCFAA0B104F110000599FFF789FD204606
:102F0000FFF725FB00F020FB002895D14FF0805003
:102F100009490860BFF34F8FBFF36F8F8CE72046DE
:102F2000FFF715FB00F010FB86E72046FFF70FFBCD
:102F300000F00AFB0020ADE704ED00E02DE9F743C7
:102F400082B005460F464FF000082C4600BFFFF741
:102F50000DFCD4F83890B9F1000F1ED0E668394660
:102F60002046FFF704F9E660606A08B9012000E036
:102F7000002060B904F1240000F05AFA38B14FF093
:102F8000805030490860BFF34F8FBFF36F8FFFF75A
:102F9000FFFB012005B0BDE8F083049818B9FFF7E6
:102FA000F7FB0020F6E7B8F1000F04D16846FFF701
:102FB000AFFC4FF00108FFF7EBFBFFF77DFDFFF7DC
:102FC000D5FB94F94400401C10B9002084F844005B
:102FD00094F94500401C10B9002084F84500FFF723
:102FE000D7FB04A9684600F0B1F8F0B92046FFF716
:102FF0006FFAA0B104F124000499FFF709FD2046FF
:10300000FFF7A5FA00F0A0FA0028A0D14FF08050F9
:103010000C490860BFF34F8FBFF36F8F97E72046CF
:10302000FFF795FA00F090FA91E72046FFF78FFA44
:1030300000F08AFA2046FFF74BFA002887D00020DC
:10304000A8E7000004ED00E02DE9F74183B0054654
:103050000F464FF000082C4600BFFFF787FBA66B1A
:10306000F6B139462046FFF782F8701EA06320694A
:1030700008B9012000E0002060B904F1100000F060
:10308000D7F938B14FF080502F490860BFF34F8F08
:10309000BFF36F8FFFF77CFB012006B0BDE8F08126
:1030A000059818B9FFF774FB0020F6E7B8F1000F98
:1030B00004D101A8FFF72CFC4FF00108FFF768FBD3
:1030C000FFF7FAFCFFF752FB94F94400401C10B9DB
:1030D000002084F8440094F94500401C10B90020F9
:1030E00084F84500FFF754FB05A901A800F02EF86D
:1030F000F0B92046FFF7ECF9A0B104F124000599DE
:10310000FFF786FC2046FFF722FA00F01DFA0028A0
:10311000A3D14FF080500C490860BFF34F8FBFF32D
:103120006F8F9AE72046FFF712FA00F00DFA94E746
:103130002046FFF70CFA00F007FA2046FFF7C8F91F
:1031400000288AD00020A8E704ED00E070B505460D
:103150000C46FFF70BFB114802686868131A104908
:1031600028680968884206D06868904203D801261A
:10317000002020600DE02068984207D92068C01A1E
:1031800020602846FFF7C4FB002602E000202060F4
:103190000126FFF7FDFA304670BD000070000020E8
:1031A000840000202DE9FC5F06460F4690469946B4
:1031B000DDE90CAB4B46424639463046CDE900AB23
:1031C000FFF75EF8054625B12846FEF757FF0124B4
:1031D00001E04FF0FF342046BDE8FC9F2DE9F041AF
:1031E00000275B48006800287DD15A480068451CCC
:1031F0005848056095B900BF5748D0F80080574837
:103200000068554908605548C0F800805448006877
:10321000401C53490860FFF777F900BF5148006828
:1032200085427DD300BF4C480068006808B9012082
:1032300000E0002020B14FF0FF304A4908606EE006
:1032400045480068C068C4686668B54202D245480F
:10325000066064E000BF6069D4E902128A60D4E9C4
:1032600002214A60211D42688A4201D1E168416021
:10327000002262610168491E016000BFA06AA0B11E
:1032800000BFA06AD4E907128A60D4E907214A6026
:1032900004F1180142688A4201D1216A416000228A
:1032A000A2620168491E016000BF00BF94F82C10A3
:1032B000012088402C49096808432B49086000BF59
:1032C000E16A01EB8101294A02EB81014868A060B3
:1032D0008268E260211D826851608160E16A01EBD1
:1032E0008101224A00E02BE002EB81026261E16A87
:1032F00001EB81011D4A52F82110491CE26A02EBE0
:1033000082021A4B43F8221000BF00BF1849E06A3E
:103310000968C96A884286D9012784E700E000BFAE
:1033200013480068C06A00EB8000104951F8200083
:10333000012800D901270F48006800B1012704E0E7
:103340000D480068401C0C4908603846BDE8F08113
:103350009800002070000020640000206800002019
:10336000840000208C000020740000200C2D002020
:1033700060000020800000207C00002070B5054621
:103380002C460026002D4CD0A06C401EA064616C21
:10339000E06A884245D0A06C002842D1201DFFF78A
:1033A000A7F940B994F82C10012088401E490968FB
:1033B00081431D480160606CE062E06AC0F1050075
:1033C000A06100BF94F82C100120884016490968BC
:1033D00008431549086000BFE16A01EB8101134A07
:1033E00002EB81014868A0608268E260211D82686A
:1033F00051608160E16A01EB81010C4A02EB8102BC
:103400006261E16A01EB8101084A52F82110491C0E
:10341000E26A02EB8202054B43F8221000BF00BFB4
:103420000126304670BD0000740000200C2D0020E5
:1034300070B50346D868C16800BF886AD1E90745FE
:10344000A560D1E90754656001F118044568A542FB
:1034500001D10C6A446000258D620468641E04601A
:1034600000BF33480068002842D100BF4869D1E955
:103470000245A560D1E9025465600C1D4568A5426E
:1034800001D1CC68446000254D610468641E04606D
:1034900000BF00BF91F82C400120A040254C2468BB
:1034A0002043244C206000BFCC6A04EB8404224DEE
:1034B00005EB8404606888608568CD600C1D8568B4
:1034C0006C608460CC6A04EB84041B4D05EB8405BE
:1034D0004D61CC6A04EB8404174D55F82440641CFC
:1034E000CD6A05EB8505144E46F8254000BF11E076
:1034F00000BF124C6068C86185680D6201F1180454
:1035000085686C6084600D4D8D622C462468641C57
:103510002C6000BF0A4CC86A2468E46AA04204D93F
:1035200001220120074C206000E00022104670BDFF
:1035300098000020740000200C2D0020982D002001
:1035400060000020800000202DE9F04100240027C9
:10355000FFF70CF9002552480068401E50490860EA
:103560000846006800286ED14E48006800286AD0DE
:1035700064E04D48C068C46800BFA06AD4E907127F
:103580008A60D4E907214A6004F1180142688A423E
:1035900001D1216A41600022A2620168491E0160D6
:1035A00000BF00BF6069D4E902128A60D4E9022139
:1035B0004A60211D42688A4201D1E16841600022CF
:1035C00062610168491E016000BF00BF94F82C10C1
:1035D000012088403549096808433449086000BF24
:1035E000E16A01EB8101324A02EB81014868A06087
:1035F0008268E260211D826851608160E16A01EBAE
:1036000081012B4A02EB81026261E16A01EB8101D7
:10361000274A52F82110491CE26A02EB8202244B2D
:1036200043F8221000BF00BF2249E06A0968C96A56
:10363000884203D90120204941F825001A48006832
:1036400010B9012001E026E00020002891D00CB143
:10365000FEF75AFF194806686EB100BFFFF7BEFDBE
:1036600018B10120144941F82500761E002EF5D12D
:10367000002012490860104850F8250058B1012771
:1036800000BF0C48006838070D490860BFF34F8F32
:10369000BFF36F8F00BFFFF77BF83846BDE8F081BE
:1036A000980000206C000020982D0020740000205D
:1036B0000C2D002060000020800000207C000020F5
:1036C00004ED00E000000000000000000000000029
:1036D00000000000000000F80000000000000033BF
:1036E0003000000000160E00160E00000000000062
:1036F0000000000040C07840C0784000043F04044F
:103700003F040400007088FC08300000001820FF0F
:10371000211E0000F008F000E018000000211C034A
:103720001E211E0000F00888700000001E212324C6
:1037300019272110000000160E00000000000000F4
:1037400000000000000000E0180402000000000774
:103750001820400000020418E0000000004020187B
:1037600007000000404080F0804040000202010F4E
:1037700001020200000000F0000000000101011F32
:1037800001010100000000000000000000B0700016
:103790000000000000000000000000000001010126
:1037A00001010101000000000000000000303000B5
:1037B000000000000000000080601804006018068F
:1037C0000100000000E010080810E000000F1020C9
:1037D00020100F00001010F8000000000020203F13
:1037E000202000000070080808887000003028249D
:1037F000222130000030088888483000001820203E
:1038000020110E000000C02010F800000007042462
:10381000243F240000F808888808080000192120A7
:1038200020110E0000E0108888180000000F112001
:1038300020110E0000380808C83808000000003FBA
:10384000000000000070880808887000001C222119
:1038500021221C0000E010080810E00000003122C6
:1038600022110F00000000C0C00000000000003066
:1038700030000000000000C0C0000000000080B068
:1038800070000000000080402010080000010204C9
:103890000810200040404040404040000404040420
:1038A00004040400000810204080000000201008DC
:1038B00004020100007048080808F0000000003011
:1038C00036010000C030C828E810E000071827249F
:1038D00023140B000000C038E0000000203C23024D
:1038E0000227382008F8888888700000203F2020B0
:1038F00020110E00C03008080808380007182020E2
:103900002010080008F808080810E000203F2020D8
:1039100020100F0008F88888E8081000203F2020B9
:103920002320180008F88888E8081000203F2000AD
:1039300003000000C03008080838000007182020E5
:10394000221E020008F808000008F808203F2101A4
:1039500001213F20000808F8080800000020203F4F
:103960002020000000000808F8080800C0808080BF
:103970007F00000008F888C028180800203F2001B8
:103980002638200008F8080000000000203F202012
:103990002020300008F8F800F8F80800203F003F29
:1039A000003F200008F830C00008F808203F200041
:1039B00007183F00E01008080810E0000F10202052
:1039C00020100F0008F808080808F000203F210127
:1039D00001010000E01008080810E0000F1824247E
:1039E00038504F0008F8888888887000203F2000F1
:1039F000030C3020007088080808380000382021A7
:103A000021221C00180808F8080818000000203FB0
:103A10002000000008F808000008F808001F202017
:103A200020201F000878880000C8380800000738E8
:103A30000E010000F80800F80008F800033C070039
:103A4000073C0300081868808068180820302C03A1
:103A5000032C30200838C800C83808000000203F78
:103A60002000000010080808C83808002038262167
:103A700020201800000000FE020202000000007F6B
:103A800040404000000C30C0000000000000000179
:103A90000638C00000020202FE0000000040404064
:103AA0007F00000000201008040810200000000023
:103AB0000000000000000000000000008080808006
:103AC00080808080000204080000000000000000E8
:103AD0000000000000008080808000000019242287
:103AE00022223F2008F8008080000000003F1120C3
:103AF00020110E000000008080800000000E1120C8
:103B000020201100000000808088F800000E1120A5
:103B100020103F200000808080800000001F2222B3
:103B200022221300008080F0888888180020203F1F
:103B3000202000000000808080808000006B949432
:103B40009493600008F8008080800000203F2100EE
:103B500000203F2000809898000000000020203FB7
:103B600020200000000000809898000000C08080A5
:103B7000807F000008F8000080808000203F240241
:103B80002D302000000808F8000000000020203F31
:103B9000202000008080808080808000203F2000E6
:103BA0003F20003F008080008080000000203F21F7
:103BB00000203F200000808080800000001F202027
:103BC00020201F00808000808000000080FFA12056
:103BD00020110E000000008080808000000E112067
:103BE00020A0FF80808080008080800020203F21F6
:103BF00020000100000080808080800000332424A9
:103C000024241900008080E0808000000000001F54
:103C1000202000008080000000808000001F202005
:103C200020103F20808080000080808000010E30C6
:103C30000806010080800080008080800F300C0327
:103C40000C300F0000808000808080000020312E2A
:103C50000E312000808080000080808080818E7006
:103C60001806010000808080808080000021302CB8
:103C70002221300000000000807C020200000000D1
:103C8000003F404000000000FF0000000000000076
:103C9000FF0000000002027C800000000040403F66
:103CA0000000000000804040800000800000000014
:103CB000000101000000000000000000002F0000D3
:103CC00000000700070000147F147F1400242A7FDF
:103CD0002A1200231308646200364955225000005E
:103CE0000007000000001C224100000041221C00CF
:103CF0000014083E08140008083E0808000000A050
:103D0000600000080808080800006060000000204B
:103D100010080402003E5149453E0000427F400029
:103D2000004261514946002141454B3100181412AF
:103D30007F10002745454539003C4A49493000017C
:103D40007109050300364949493600064949291ECB
:103D5000000036360000000056360000000814222D
:103D6000410000141414141400004122140800022D
:103D700001510906003E4955592E007C1211127C52
:103D8000007F49494936003E41414122007F41417F
:103D9000221C007F49494941007F09090901003E71
:103DA0004149497A007F0808087F0000417F4100AF
:103DB000002040413F01007F08142241007F404025
:103DC0004040007F020C027F007F0408107F003E0D
:103DD0004141413E007F09090906003E4151215EF3
:103DE000007F091929460046494949310001017FF0
:103DF0000101003F4040403F001F2040201F003F86
:103E00004038403F00631408146300070870080737
:103E100000615149454300007F4141000002040810
:103E20001020000041417F00000402010204004014
:103E300040404040000001020400002054545478E7
:103E4000007F484444380038444444200038444407
:103E5000487F00385454541800087E0901020018A5
:103E6000A4A4A47C007F080404780000447D4000E2
:103E7000004080847D00007F102844000000417FC6
:103E80004000007C04180478007C080404780038A2
:103E90004444443800FC242424180018242418FC2A
:103EA000007C0804040800485454542000043F4493
:103EB0004020003C4040207C001C2040201C003C56
:103EC0004030403C004428102844001CA0A0A07CA6
:103ED000004464544C440000087F41000000007F0F
:103EE00000000000417F0800000804081008A3AC8F
:103EF00000000000000000000000000000000000C2
:103F00000000005838000000000000000000000021
:103F100000A1A3000000000000000000000000005D
:103F20000000000000001824241800000000000019
:103F300000000000C4E300008060F8074020180F74
:103F400008C80808281800010000FF00100C0340F2
:103F5000807F0001061800BAC3001010F01F10F097
:103F600000808282E2928A868000402215081661D3
:103F7000000040807F0000000000CAC00020202018
:103F8000FE2020FF202020FF202020200000000015
:103F90007F404047444444474040400000BDE70064
:103FA000000000FE929292FE929292FE00000000AB
:103FB00008080484621E010001FE020404080800CF
:103FC000E0CB00FC04FC0012641008F714549414B5
:103FD000F404000F040F00047E011D1311559951C4
:103FE0003F1100E0B60000FC0404FC0090523410C5
:103FF0007F1034529000000F04040F82825A56231F
:1040000022524E820200B4F30020202020202020E3
:10401000FF202020202020200080804020100C0342
:1040200000030C102040808000BCD200102C2424FF
:10403000A4A465A624242424A4340C0040494929BE
:10404000241452897F040A1110202000BAC30010E2
:1040500010F01F10F000808282E2928A8680004079
:104060002215081661000040807F0000000000BC9F
:10407000D7000000FE22222222FE22222222FE005F
:10408000000000000702020202FF02020202070013
:104090000000C8A900F212FE12FE12F200844F24A2
:1040A00014244F8400FF4A49484949FF00404949C8
:1040B0007F49494000C5A8001060028C201808C83C
:1040C00038CF08082898000004047E01040201FF8C
:1040D0004021060A11204000B6C8000000FC24243C
:1040E00024FC252624FC242424040040308F8084D2
:1040F0004C55252525554C80808000A3BA00000032
:1041000000000000000000000000000000000000AF
:104110003636000000000000000000000000D1CC96
:1041200000807000FF1008FE424242FA424242FE06
:1041300000806018070810FF50484641424C40FF7D
:1041400000CEED00100C055555D5057F055555558C
:1041500005140C001010108AA96B352525ABE90851
:1041600010101000BBF0000000C038000000FF007D
:104170000040201800000080814020100C03000344
:104180000C102040808000D1E600807000FF1008F5
:10419000209088874404948C800080601807083041
:1041A00000FF444440404444FF00D3D000040404D2
:1041B00084E43C2724242424E404040400040201AD
:1041C00000FF0909090949897F00000000CEDE00CF
:1041D0000040424242C27E42C2424242404000004F
:1041E000804020100C0300003F4040404070000021
:1041F000B7E7000000FE021222C202C23202FE0035
:1042000000000080601F0020100C030C30000F30F5
:1042100040F800C9C8000000FC24242425262424DA
:104220002424243C000040300F211549817F0021C7
:104230001549817F0000B4F200101010FF109004A7
:10424000040404FC04040404000444827F0100000C
:104250000040807F0000000000BFAA0080828282B0
:10426000FE8282828282FE828282800000804030D2
:104270000F0000000000FF0000000000B9D800009F
:10428000001011161010F01010141310000000810F
:1042900081414121110D030D11214141818100B165
:1042A000D50000F80122202222A2FA22222202FEB8
:1042B000000000FF0008040211201F000040807F62
:1042C0000000D7B40000083000FF20202020FF208D
:1042D00020222C200004040201FF8040300E010641
:1042E0001820408000CCAC00000484844424548F07
:1042F0001424448484040000413900003C404042BE
:104300004C40407004093100B5C600807000FF20A9
:104310001004040404FC040404040080601807086A
:1043200030000040807F0000000000000000FF011E
:1043300001013109090909897101010101FFFF80AA
:1043400080808080809681808080808080FFFF01D7
:10435000818181FD8991A1C1FD81818101FFFF8062
:104360008080809F888482819F80808080FF04007D
:104370000008000000000000000200010000100022
:10438000A0430008000000209C0000002801000855
:104390003C4400089C0000207433000044010008E5
:1043A00000000000010203040102030406070809DB
:1043B00002040608000000000000000000000000E9
:1043C00000000000000000000000000000000000ED
:1043D00000000000000000000000000000000000DD
:1043E00000000000000000000000000000000000CD
:1043F000000000000000000000000000AAAAAAAA15
:1044000000000000000000000000000000000000AC
:10441000000000000000000000000000000000009C
:10442000000000000000000000000000000000008C
:0C4430000000000004000000000000007C
:04000005080000ED02
:00000001FF
